:040000003BEF2DF0B5
:1000080000C015F09EA01FD0000E2D1802E1100EA2
:100018002C1812E10DC1CEF00EC1CFF00FC1D0F0F7
:1000280010C1D1F001010D6B0E6B0F6B106B2C6AB8
:100038002D6A010E206E02D02C4A2D2A0B0ECF6E8F
:10004800DC0ECE6E9E90F2A208D00101010E0D27A3
:10005800000E0E230F231023F29215C000F011009A
:100068000B820BAE3EEF00F003680268016800687F
:080078000A360232FF0E1200ED
:0E008000026A016A006A086A036A000E120032
:10008E00C7B409D01F0EC514016E0150000A03E15A
:0A009E00010E006E01D0006A12008E
:1000A8000B840BAE5FEF00F0010E036E026A016A6B
:0A00B800006A0A360232FF0E120041
:0800C2000AAE029E000E1200BE
:0E00CA0001015AB102D08F9001D08F80120038
:1000D8009E965AC1C9FFC7A401D0FDD79EB601D0CC
:1000E800FDD7C5BC02D0006A03D0C584020E006EDD
:0200F8001200F4
:0A00FA00000E9EBA010E006E120007
:100104005AC16AFF016A0150000A05E1000E68B095
:0C011400010E016EF8D76ACF00F0120057
:10012000AECF01F0ABA202D0AB98AB8801C000F01B
:020130001200BB
:0E01320001015AB102D08A9401D08A841200D1
:100140005AC1C9FF016A0150000A05E1000EC7B09B
:0C015000010E016EF8D7C9CF00F01200BC
:0E015C0001015AB102D08F9201D08F821200A1
:0E016A0001015AB102D08B9801D08B8812008F
:0A017800000E82B8010E006E1200A6
:100182001DCF01F00F0122A302D02299228901C0C2
:0401920000F0120067
:0A019600000E81B4010E006E12008D
:0A01A000000E86B0010E006E120082
:1001AA0001015A6B5B6B5B51120802E15A518E08CE
:1001BA0008E368DF005201E004D001015A4B5B2BCF
:1001CA00F2D70101120E5B5D02E18F0E5A5D03E365
:1001DA007B0E006E05D0C580C5A001D0FDD7006A90
:0201EA00120001
:0A01EC00000E80B0010E006E12003C
:1001F6009E96C5869EB601D0FDD7C9CF01F00101F6
:100206005A51000A02E1C58A01D0C59A9E96C58850
:0C0216009EB601D0FDD701C000F0120020
:0A022200000EA4BA010E006E1200D7
:0A022C00000E82B6010E006E1200F3
:0E02360001015AB102D08F9401D08F841200C2
:0E02440001015AB102D08B9601D08B861200B8
:0E02520001015AB102D0899801D089881200AA
:0E02600001015AB102D08B9C01D08B8C120090
:0E026E0001015AB102D08B9E01D08B8E12007E
:0E027C0001015AB102D08B9401D08B84120084
:0E028A0001015AB102D08B9601D08B86120072
:0E02980001015AB102D08B9A01D08B8A12005C
:0E02A60001015AB102D08D9201D08D8212005A
:0E02B400ACB202D00000FCD75AC1ADFF120060
:0E02C20001015AB102D08B9601D08B8612003A
:0E02D00001015AB102D08D9401D08D8412002C
:0E02DE0001015AB102D08B9A01D08B8A120016
:0E02EC0001015AB102D08B9801D08B8812000C
:0E02FA0001015AB102D08D9601D08D861200FE
:0E03080001015AB102D08A9201D08A821200FD
:0E03160001015AB102D08B9601D08B861200E5
:0E03240001015AB102D0899401D089841200DF
:0E03320001015AB102D08B9801D08B881200C5
:0A034000000E82B8010E006E1200DC
:0A034A00000E82B6010E006E1200D4
:0A035400C582C5A201D0FDD712003A
:04035E00C584120040
:0A036200000EACB2010E006E120096
:0A036C00000E80B4010E006E1200B6
:0A037600000E82BA010E006E1200A4
:0E03800001015AB102D08B9801D08B88120077
:0E038E0001015AB102D08B9601D08B8612006D
:0A039C00000E81B2010E006E120087
:0A03A600000E82B4010E006E12007A
:0A03B000000E82B6010E006E12006E
:0A03BA00000E86B2010E006E120064
:0A03C400000E82BE010E006E120052
:0A03CE00000E82B6010E006E120050
:0A03D800000E86B4010E006E120044
:0A03E200000E82B8010E006E12003A
:0A03EC00000E82B8010E006E120030
:0A03F600000E82B8010E006E120026
:0A040000000E82B2010E006E120021
:0A040A00000E82BE010E006E12000B
:0A041400000E84B2010E006E12000B
:0A041E00000E81B0010E006E120006
:0A042800000E80B8010E006E1200F5
:0A043200000E82B0010E006E1200F1
:0A043C00000E82B6010E006E1200E1
:0A044600000E82BC010E006E1200D1
:0A045000000E84B0010E006E1200D1
:0A045A00000E84B6010E006E1200C1
:0A046400000E82BA010E006E1200B5
:0A046E00000E82BC010E006E1200A9
:0A047800000E84B4010E006E1200A5
:0A048200000E82B6010E006E12009B
:0C048C00000E0F0121B3010E006E1200E3
:0A049800000E82BA010E006E120081
:0A04A200000E80B2010E006E120081
:0A04AC00000E82B8010E006E12006F
:0E04B60001015AB102D08B9801D08B88120040
:0E04C40001015AB102D0899001D08980120046
:0E04D20001015AB102D08B9601D08B86120028
:0E04E00001015AB102D08D9001D08D80120022
:1004EE005AC16AFF016A0150000A05E1000E68B0A8
:0C04FE00010E016EF8D76ACF01F0120069
:10050A005AC1C9FF016A0150000A05E1000EC7B0CD
:0C051A00010E016EF8D7C9CF01F01200ED
:100526000F0121B302D00000FBD75AC11CFF1200F5
:100536000CB0DDEF02F00CA283EF03F00E6A000EA2
:100546000264F4EF02F0F00E0214D8A4BFEF02F03A
:10055600023A01380F0B02260138F00B016E003803
:100566000F0B01260038F00B006E08380F0B002623
:100576000838F00B086E0E84D89002BED8EF02F051
:1005860008360036013602360E2A02BED8EF02F0D1
:1005960008360036013602360E2A02BED8EF02F0C1
:1005A60008360036013602360E2A0E50036479EFFD
:1005B60003F0035E0BBC08AE7EEF03F0D880800E1E
:1005C60008640030000E002201220222D8A07EEF2D
:1005D60003F0023201320032034A83EF03F07EEF6A
:1005E60003F001C002F000C001F008C000F0086A84
:1005F600000E0E8602642BEF03F0F00E0214D8A450
:1006060013EF03F0023A01380F0B02260138F00B04
:10061600016E00380F0B01260038F00B006E0E84B9
:10062600D89002BED8EF02F00036013602360E2A06
:1006360002BED8EF02F00036013602360E2A02BE9E
:10064600D8EF02F00036013602360E2AD8EF02F055
:1006560001C002F000C001F0006A000E0E960E887E
:10066600026458EF03F0F00E0214D8A443EF03F02F
:10067600023A01380F0B02260138F00B016E0E8488
:10068600D89002BED8EF02F0013602360E2A02BE1C
:10069600D8EF02F0013602360E2A02BED8EF02F07B
:1006A600013602360E2AD8EF02F001C002F0016AC6
:1006B600000E0E86026488EF03F0F00E0214D8A432
:1006C60067EF03F0023A0E84D89002BED8EF02F02C
:1006D60002360E2A02BED8EF02F002360E2A02BEFB
:1006E600D8EF02F002360E2AD8EF02F0010E0C6E99
:1006F600D8DC8BEF03F0020E0C6EE0DC8BEF03F020
:10070600040E0C6EAEDC8BEF03F0080E0C6EB5DC3F
:020716001200CF
:0E07180001015AB102D08B9E01D08B8E1200CF
:0E07260001015AB102D08B9801D08B881200CD
:0E07340001015AB102D08A9001D08A801200D1
:0E07420001015AB102D0899201D089821200C1
:0E07500001015AB102D08B9A01D08B8A12009F
:0E075E0001015AB102D08B9001D08B801200A5
:0E076C0001015AB102D08B9C01D08B8C12007F
:0E077A0001015AB102D08B9201D08B82120085
:080788000B6A0B86FF0E120044
:10079000086A096A000E076203644DEF04F0025014
:1007A00006180A6E075003267E0ED8A0DEEF03F06F
:1007B000035ED8B052EF04F0E2EF03F0035ED8A07E
:1007C00057EF04F0028E068E02C00EF001C00BF04F
:1007D00000C00DF000500402F4CF0CF001500502EF
:1007E000F4CF00F0F3CF08F00402F3500C26F450DD
:1007F0000822000E00220D500502F3500C26F45082
:100800000822000E002202500402F3500826F45081
:10081000002202500502016A000E0122F350002658
:10082000F45001220D500602F3500826F450002225
:10083000026A000E012202220B500602F35000262B
:10084000F4500122000E02220E500602F35001263F
:10085000F450022202BE35EF04F0083600360136AD
:1008600002360306D8B457EF04F048EF04F0D880FE
:10087000800E08640030000E002201220222D8A05F
:1008800048EF04F0023201320032034A52EF04F022
:100890000AAE029E000E5AEF04F0010E40EC00F08A
:1008A0005AEF04F0020E34EC00F05AEF04F0040E9C
:0608B00054EC00F0120000
:1008B6000134083609360450085E0550D8A0053CB8
:1008C600095E003601360F0E0C6E01340836093605
:1008D600045000A006D0085E0550D8A0053C095E6D
:1008E60005D008260550D8B0053C09260036013645
:1008F6000C2EEBD700B006D0045008260550D8B011
:08090600053C09260000120067
:10090E00086A080E0C6E003408360450085ED8B023
:0E091E0002D00826D89000360C2EF5D7120015
:10092C000D6A086A0050D8B4000C04180A6E0ABE8E
:10093C000D1E0B6A04AE02D0041E042A00AE02D0B7
:10094C00001E002A005004100A6E0ABE1FD004506C
:10095C00085E003600340836045008260036060EB1
:10096C000C6E00340836045000B0085E00A0082657
:10097C0000360C2EF6D700A008260BB015D00DAE05
:10098C00000C001E002A081E082A000C04AE09D018
:10099C0000BE04D00050086E006AF1D7006A002A2D
:1009AC00000C001E0B2AD3D7082A0450085CD8A4CC
:0E09BC00E6D7086A002A00AEE2D7FF0C120050
:1009CA00025006180E6E086A096A0B6A0350076419
:1009DA00D8EF05F006500A6E068E028E03500B6E93
:1009EA000750036E000E0B6428EF05F00B50075EEC
:1009FA00D8B4C9EF05F0070E076497EF05F0075E54
:100A0A0000C008F001C000F002C001F0026A074EFF
:100A1A00C9EF05F007646CEF05F0075E00C008F047
:100A2A0001C000F0016A074EC9EF05F007644AEFFA
:100A3A0005F0075E00C008F0006A074EC9EF05F02E
:100A4A00076431EF05F00AC002F005C001F004C0E6
:100A5A0000F0086AF5EF06F0030E07643CEF05F0B4
:100A6A00075E08380F0B086E074EC9EF05F0D890DD
:100A7A000832074EC9EF05F0D8900832074EC9EF81
:100A8A0005F0D8900832C9EF05F0030E07645BEF52
:100A9A0005F0075E08380F0B086E0038F00B0826C1
:100AAA0000380F0B006E074EC9EF05F0D8900032E0
:100ABA000832074EC9EF05F0D89000320832074EC7
:100ACA00C9EF05F0D89000320832C9EF05F0030EDD
:100ADA00076483EF05F0075E08380F0B086E0038CD
:100AEA00F00B082600380F0B006E0138F00B0026B9
:100AFA0001380F0B016E074EC9EF05F0D89001328D
:100B0A0000320832074EC9EF05F0D89001320032A0
:100B1A000832074EC9EF05F0D89001320032083288
:100B2A00C9EF05F0030E0764B4EF05F0075E083855
:100B3A000F0B086E0038F00B082600380F0B006EFA
:100B4A000138F00B002601380F0B016E0238F00B4A
:100B5A00012602380F0B026E074EC9EF05F0D89036
:100B6A000232013200320832074EC9EF05F0D8903E
:100B7A000232013200320832074EC9EF05F0D8902E
:100B8A000232013200320832096A000E0EAEBDEF9F
:100B9A0006F0081E001E011E021E082A002201225B
:100BAA000222BDEF06F00750D8A4DEEF05F0F5EFFC
:100BBA0006F0096A02C00AF0028E068E0750035C2C
:100BCA00076ED8B4B0EF06F0070E07647EEF06F0A2
:100BDA00075E0450096E0550046E0650056E066ADB
:100BEA00074EB0EF06F0070E076453EF06F0075EF4
:100BFA000450096E0550046E056A074EB0EF06F000
:100C0A00070E076431EF06F0075E0450096E046AA6
:100C1A00074EB0EF06F0070E076418EF06F00AC099
:100C2A0002F0F5EF06F0030E076423EF06F0075E05
:100C3A0009380F0B096E074EB0EF06F0D89009324B
:100C4A00074EB0EF06F0D8900932074EB0EF06F023
:100C5A00D8900932B0EF06F0030E076442EF06F0AF
:100C6A00075E09380F0B096E0438F00B09260438A1
:100C7A000F0B046E074EB0EF06F0D890043209321B
:100C8A00074EB0EF06F0D89004320932074EB0EFA3
:100C9A0006F0D89004320932B0EF06F0030E07646A
:100CAA006AEF06F0075E09380F0B096E0438F00B7D
:100CBA00092604380F0B046E0538F00B0426053894
:100CCA000F0B056E074EB0EF06F0D89005320432CE
:100CDA000932074EB0EF06F0D890053204320932D5
:100CEA00074EB0EF06F0D890053204320932B0EF61
:100CFA0006F0030E07649BEF06F0075E09380F0B38
:100D0A00096E0438F00B092604380F0B046E0538F7
:100D1A00F00B042605380F0B056E0638F00B052676
:100D2A0006380F0B066E074EB0EF06F0D890063263
:100D3A00053204320932074EB0EF06F0D890063277
:100D4A00053204320932074EB0EF06F0D890063267
:100D5A00053204320932086A000E0EAEBDEF06F003
:100D6A00091E041E051E061E092A04220522062241
:100D7A00095008260450002205500122065002227A
:100D8A000EBED4EF06F0D8A0E3EF06F0023201322D
:100D9A0000320832033EE3EF06F0EFEF06F0D8B078
:100DAA00E9EF06F0000E081E001E011E021E082AA8
:100DBA000022012202220A7EE9EF06F0010E0C6EE1
:100DCA009BEC02F0F7EF06F0020E0C6E9BEC02F0C1
:100DDA00F7EF06F0040E0C6E34EC00F0F7EF06F0B5
:060DEA00000E0C6E120069
:100DF000F250026EF29E0500FF6A0150FE6E005036
:080E0000FD6E02BEF28E12002D
:100E08000B800BAE10EF07F0026A0AAEFF0E026EFF
:0C0E1800016E006E0A360232FF0E12005E
:100E24000050086E0150006E0250016E0350026EB5
:100E3400036A0B6A0C6A9E0E036E0A6A020E0C6E3B
:060E44009BEC02F012001D
:100E4A000B6A0C6A0A6A086A0350D8B4ADEF07F055
:100E5A00028E9E0E035E03BE38EF07F0D8B438EF59
:100E6A0007F09DEF07F0036C080E035CD8A06AEF49
:100E7A0007F0036E083600C008F001C000F002C097
:100E8A0001F0026A080E035CD8A06AEF07F0036E4D
:100E9A00083600C008F001C000F0016A080E035CC1
:100EAA00D8A06AEF07F0036E083600C008F0006A9F
:100EBA00080E035CD8A06AEF07F0036E0836086ACA
:100ECA000350D8A4D89076EF07F00350D8B476EF41
:100EDA0007F0D8900232013200320832032E6EEF48
:100EEA0007F00BBC08A087EF07F0D8A087EF07F040
:100EFA00082AD8B4002AD8B4012AD8B4022A02BED1
:100F0A00B1EF07F00AAEADEF07F0021E011E001E98
:100F1A00081E082AD8B4002AD8B4012AD8B4022A4A
:100F2A00ADEF07F0026A016A006A086AADEF07F0DE
:100F3A000B800BAEB6EF07F0026A0AAEB6EF07F007
:100F4A00026E016E006E086E0A360232B6EF07F0C4
:100F5A00000E0C6AB7EF07F0010E0C6E50DFB7EF08
:100F6A0007F0FF0E0250036E0150026E0050016E30
:060F7A000850006E120099
:100F80000450000A12E10550000A0FE10650000A61
:100F90000CE10750000A09E1FF0E006EFF0E016E22
:100FA0007F0E026EFF0E036EA8D0086A096A075012
:100FB000D8B46BEF08F00350D8B470EF08F00250CB
:100FC00006180A6E028E068E0E6A02C008F001C074
:100FD0000CF000C00DF004500D5E0550D8A0053C8B
:100FE0000C5E0650D8A0063C085E086A0C6A0D6AC2
:100FF000D8A002EF08F0D890023201320032083255
:10100000010E0E6E0750035ED8A00FEF08F07E0EA3
:101010000E240326D8B075EF08F015EF08F07E0E09
:101020000E240326D8A07AEF08F0180E0B6E0D36AA
:101030000C3608360036013602360E360450005E95
:101040000550D8A0053C015E0650D8A0063C025EC3
:1010500006340E120EA030EF08F00D803BEF08F0C2
:10106000045000260550D8B0053C01260650D8B0E3
:10107000062802260D900B2E17EF08F061EF08F0FE
:10108000D8900036013602360E360450005E055008
:10109000D8A0053C015E0650D8A0063C025E06348E
:1010A0000E10010B0D26D8B00C2AD8B4082AD8A4EB
:1010B00061EF08F008320C320D32032AD8B475EF14
:1010C00008F00AAE089E0850026E0C50016E0D50DA
:1010D000006E7DEF08F0010EC4EC03F07DEF08F028
:1010E000020E40EC00F07DEF08F0040E34EC00F04E
:0C10F0007DEF08F0080E54EC00F0120038
:1010FC00800E01015019006E800E000A005CD8B001
:10110C006DD150510008016E01C050F1800E0118D4
:10111C00006E800E6E0A005CD8A0C0D0640E046E07
:10112C0050C100F096EC04F0120E0024056E000E77
:10113C0000BEFF0E066E000E062205C000F006C0B3
:10114C0001F0000E06BEFF0E026E036E003600901C
:10115C00013602360336003600900136023603366D
:10116C00E40E0024F66E5A0E0120F76E000E0220DB
:10117C00F86E0900F5CF51F10900F5CF52F10900D5
:10118C00F5CF53F10900F5CF54F1640E046E50C144
:10119C0000F096EC04F008C000F00A0E046E96EC19
:1011AC0004F0090E0024056E000E00BEFF0E066E44
:1011BC00000E062205C000F006C001F0000E06BEAF
:1011CC00FF0E026E036E00360090013602360336B7
:1011DC0000360090013602360336E40E0024F66E1B
:1011EC005A0E0120F76E000E0220F86E0900F5CFA2
:1011FC0000F00900F5CF01F00900F5CF02F009006D
:10120C00F5CF03F051C104F052C105F053C106F003
:10121C0054C107F0C8EC03F000C051F101C052F109
:10122C0002C053F103C054F10A0E046E50C100F019
:10123C0096EC04F008C000F000C001F0000E00BEF7
:10124C00FF0E026E036E046E0136019002360336F9
:10125C00043601360190023603360436E40E0124BE
:10126C00F66E5A0E0220F76E000E0320F86E09007F
:10127C00F5CF00F00900F5CF01F00900F5CF02F031
:10128C000900F5CF03F051C104F052C105F053C170
:10129C0006F054C107F0C8EC03F007D2800E0A0A1E
:1012AC00006E800E5019005C71E20A0E046E50C183
:1012BC0000F096EC04F0090E0024056E000E00BE42
:1012CC00FF0E066E000E062205C000F006C001F0EF
:1012DC00000E06BEFF0E026E036E00360090013645
:1012EC000236033600360090013602360336E40E21
:1012FC000024F66E5A0E0120F76E000E0220F86ED6
:10130C000900F5CF51F10900F5CF52F10900F5CFE5
:10131C0053F10900F5CF54F10A0E046E50C100F0E0
:10132C0096EC04F008C000F000C001F0000E00BE06
:10133C00FF0E026E036E046E013601900236033608
:10134C00043601360190023603360436E40E0124CD
:10135C00F66E5A0E0220F76E000E0320F86E09008E
:10136C00F5CF00F00900F5CF01F00900F5CF02F040
:10137C000900F5CF03F051C104F052C105F053C17F
:10138C0006F054C107F0C8EC03F08FD150C100F047
:10139C00000E50BFFF0E016E026E036E0036009001
:1013AC00013602360336003600900136023603361B
:1013BC00E40E0024F66E5A0E0120F76E000E022089
:1013CC00F86E0900F5CF00F00900F5CF01F0090027
:1013DC00F5CF02F00900F5CF03F067D1800E50195C
:1013EC00006E800E6E0A005CD8A0C0D0640E046E35
:1013FC0050C100F096EC04F0120E0024056E000EA5
:10140C0000BEFF0E066E000E062205C000F006C0E0
:10141C0001F0000E06BEFF0E026E036E0036009049
:10142C00013602360336003600900136023603369A
:10143C00180E0024F66E5B0E0120F76E000E0220D3
:10144C00F86E0900F5CF51F10900F5CF52F1090002
:10145C00F5CF53F10900F5CF54F1640E046E50C171
:10146C0000F096EC04F008C000F00A0E046E96EC46
:10147C0004F0090E0024056E000E00BEFF0E066E71
:10148C00000E062205C000F006C001F0000E06BEDC
:10149C00FF0E026E036E00360090013602360336E4
:1014AC0000360090013602360336180E0024F66E14
:1014BC005B0E0120F76E000E0220F86E0900F5CFCE
:1014CC0000F00900F5CF01F00900F5CF02F009009A
:1014DC00F5CF03F051C104F052C105F053C106F031
:1014EC0054C107F0C8EC03F000C051F101C052F137
:1014FC0002C053F103C054F10A0E046E50C100F047
:10150C0096EC04F008C000F000C001F0000E00BE24
:10151C00FF0E026E036E046E013601900236033626
:10152C00043601360190023603360436180E0124B7
:10153C00F66E5B0E0220F76E000E0320F86E0900AB
:10154C00F5CF00F00900F5CF01F00900F5CF02F05E
:10155C000900F5CF03F051C104F052C105F053C19D
:10156C0006F054C107F0C8EC03F09FD0800E0A0AB5
:10157C00006E800E5019005C71E20A0E046E50C1B0
:10158C0000F096EC04F0090E0024056E000E00BE6F
:10159C00FF0E066E000E062205C000F006C001F01C
:1015AC00000E06BEFF0E026E036E00360090013672
:1015BC000236033600360090013602360336180E1A
:1015CC000024F66E5B0E0120F76E000E0220F86E02
:1015DC000900F5CF51F10900F5CF52F10900F5CF13
:1015EC0053F10900F5CF54F10A0E046E50C100F00E
:1015FC0096EC04F008C000F000C001F0000E00BE34
:10160C00FF0E026E036E046E013601900236033635
:10161C00043601360190023603360436180E0124C6
:10162C00F66E5B0E0220F76E000E0320F86E0900BA
:10163C00F5CF00F00900F5CF01F00900F5CF02F06D
:10164C000900F5CF03F051C104F052C105F053C1AC
:10165C0006F054C107F0C8EC03F027D050C100F0DD
:10166C00000E50BFFF0E016E026E036E003600902E
:10167C000136023603360036009001360236033648
:10168C00180E0024F66E5B0E0120F76E000E022081
:10169C00F86E0900F5CF00F00900F5CF01F0090054
:0C16AC00F5CF02F00900F5CF03F01200AA
:1016B800260E0101056F050E066F5A0E076F010E03
:1016C800086F820E016F010E026F000E036F000E8D
:1016D800046F220E096F020E0A6F000E0B6F000EC8
:1016E8000C6F8C0E116F040E126F000E136F000E2C
:1016F800146F0F01218B900E226F98849892A4AAE0
:0A17080003D01DCF00F0FBD7120044
:10171200220E0C6E086A096A0A6A0B6A0C06D8B4B1
:101722001FD0D8900B320A32093208320332023209
:1017320001320032D8A0F2D70C06D8B409D0045036
:1017420008260550092206500A2207500B22EAD722
:10175200045008260550092206500A2207500B227F
:02176200120073
:10176400B40E0101056F020E066F5A0E076F010ECB
:10177400086F200E016F010E026F000E036F000E42
:10178400046FFA0E096F000E0A6F000E0B6F000E45
:101794000C6F620E116F030E126F000E136F000EAA
:1017A400146FAC8A900EAB6E948E949C9EAA03D058
:0817B400AECF00F0FBD71200DC
:1017BC00949894968B988B9694889486C79EC79C85
:0617CC00380EC66E12008B
:1017D20001015051390806E3300E505D03E3010E5A
:0817E200006E01D0006A120044
:1017EA0003500718D8A409EF0CF002500618D8A421
:1017FA0009EF0CF001500518D8A409EF0CF00050BD
:0E180A000418D8B4D8841200D894120012002A
:101818000450000A08E10550000A05E1FF0E006EB9
:101828007F0E016E58D00D6A096A086A01500010CF
:10183800D8B4000C015005180A6E0ABE0D1E0B6ABA
:1018480005AE05D0041E051E042AD8B4052A01AE2B
:1018580005D0001E011E002AD8B4012A0150051027
:101868000A6E0ABE10D05BEC04F00BB020D00DAEAF
:10187800000C001E011E002AD8B4012A081E091EE9
:10188800082AD8B4092A000C05AE0DD001BE07D02D
:101898000150096E0050086E016A006AE8D7016AB3
:1018A800006A002A000C011E001E0B2ADDD7082A38
:1018B800D8B4092A0450085CD8A4D9D70550095CC3
:1018C800D8A4D5D7096A086A002AD8B4012A01AE73
:0818D800CED70000FF0C120046
:1018E0000B6A0A6A096A00500402F4CF09F0F3CFC8
:1018F00008F001500502F4CF0BF0F3CF0AF00050CE
:101900000502F3500926F4500A22E86A0B2201501E
:101910000402F3500926F4500A22E86A0B2208C098
:1019200000F009C001F00AC002F00BC003F0120081
:101930000A6A0350D8A40A800750D8A40A820A5021
:10194000D8B4FBEF0CF0030AD8B4B4EF0CF00AB033
:10195000AFEF0CF006AEF9EF0CF0F7EF0CF002AEC3
:10196000F7EF0CF0F9EF0CF00250800B0A6E029EBC
:101970000650800B069E0A18D8B4C5EF0CF00A502A
:10198000D8B4F7EF0CF0F9EF0CF00750035CD8B4C3
:10199000CFEF0CF0D8A0EBEF0CF0F1EF0CF006500D
:1019A000025CD8B4D9EF0CF0D8A0EBEF0CF0F1EF5B
:1019B0000CF00550015CD8B4E3EF0CF0D8A0EBEFCD
:1019C0000CF0F1EF0CF00450005CD8B4FBEF0CF01D
:1019D000D8B0F1EF0CF00A52D8B4F9EF0CF0F7EFF1
:1019E0000CF00A52D8B4F7EF0CF0F9EF0CF0D880F5
:0E19F0001200D8901200D880D8841200120085
:1019FE000B6A0C6A086A0350D8B483EF0DF002C06C
:101A0E000AF0028E9E0E035E03AE73EF0DF0036CB2
:101A1E00080E035CD8A040EF0DF0036E083600C030
:101A2E0008F001C000F002C001F0026A080E035C6B
:101A3E00D8A040EF0DF0036E083600C008F001C0CC
:101A4E0000F0016A080E035CD8A040EF0DF0036EA3
:101A5E00083600C008F0006A080E035CD8A040EFFC
:101A6E000DF0036E0836086A0350D8A4D8904CEFD8
:101A7E000DF00350D8B44CEF0DF0D8900232013275
:101A8E0000320832032E44EF0DF00BBC08A05DEFC0
:101A9E000DF0D8A05DEF0DF0082AD8B4002AD8B406
:101AAE00012AD8B4022A02BE87EF0DF00AAE83EFE8
:101ABE000DF0021E011E001E081E082AD8B4002AB0
:101ACE00D8B4012AD8B4022A83EF0DF0026A016A53
:101ADE00006A086A83EF0DF00B800BAE8EEF0DF0EF
:101AEE00026A0AAE8EEF0DF0026E016E006E086E87
:101AFE000A3602328EEF0DF00C6A000E8FEF0DF0EB
:101B0E00010E0C6E000E04EC07F08FEF0DF0FF0EC1
:101B1E000250036E0150026E0050016E0850006EAE
:021B2E001200A3
:101B30006E0E0101505DD8A0CAD0640E046E50C173
:101B400000F087EC04F0120E0024056E066A000E09
:101B5000062205C000F006C001F0000E06BEFF0E12
:101B6000026E036E003600900136023603360036F0
:101B70000090013602360336E40E0024F66E5A0E4B
:101B80000120F76E000E0220F86E0900F5CF00F07C
:101B90000900F5CF01F00900F5CF02F00900F5CFFB
:101BA00003F0000E046E000E056E000E066E7E0E33
:101BB000076EC8EC03F000C051F101C052F102C041
:101BC00053F103C054F1640E046E50C100F087EC71
:101BD00004F008C000F00A0E046E87EC04F0090E51
:101BE0000024056E066A000E062205C000F006C03D
:101BF00001F0000E06BEFF0E026E036E003600906E
:101C000001360236033600360090013602360336BE
:101C1000E40E0024F66E5A0E0120F76E000E02202C
:101C2000F86E0900F5CF00F00900F5CF01F00900CA
:101C3000F5CF02F00900F5CF03F051C104F052C115
:101C400005F053C106F054C107F0C8EC03F000C022
:101C500051F101C052F102C053F103C054F10A0E18
:101C6000046E50C100F087EC04F008C000F000C022
:101C700001F0000E026E036E046E01360190023612
:101C80000336043601360190023603360436E40E7C
:101C90000124F66E5A0E0220F76E000E0320F86E35
:101CA0000900F5CF00F00900F5CF01F00900F5CFEC
:101CB00002F00900F5CF03F051C104F052C105F064
:101CC00053C106F054C107F0C8EC03F0B1D0505135
:101CD0000A08D8B07ED00A0E046E50C100F087EC1E
:101CE00004F0090E0024056E066A000E062205C0E7
:101CF00000F006C001F0000E06BEFF0E026E036E7D
:101D00000036009001360236033600360090013668
:101D100002360336E40E0024F66E5A0E0120F76EEA
:101D2000000E0220F86E0900F5CF00F00900F5CF93
:101D300001F00900F5CF02F00900F5CF03F0000E25
:101D4000046E000E056E000E066E7E0E076EC8EC69
:101D500003F000C051F101C052F102C053F103C0C1
:101D600054F10A0E046E50C100F087EC04F008C074
:101D700000F000C001F0000E026E036E046E01362A
:101D800001900236033604360136019002360336DE
:101D90000436E40E0124F66E5A0E0220F76E000E91
:101DA0000320F86E0900F5CF00F00900F5CF01F02F
:101DB0000900F5CF02F00900F5CF03F051C104F09E
:101DC00052C105F053C106F054C107F0C8EC03F04E
:101DD0002FD050C100F0000E016E026E036E00366F
:101DE0000090013602360336003600900136023686
:101DF0000336E40E0024F66E5A0E0120F76E000E34
:101E00000220F86E0900F5CF00F00900F5CF01F0CF
:101E10000900F5CF02F00900F5CF03F0000E046EC3
:101E2000000E056E000E066E7E0E076EC8EC03F007
:021E300012009E
:101E32000B6A0A6A096A086A0E6A03340836045091
:101E4200085E0550D8A0053C095E0650D8A0063CA5
:101E52000A5E0750D8A0073C0B5EE86AD8A0010EC4
:101E62000E5E0336070E0C6E0334083609360A3648
:101E72000B360E36045003A012D0085E0550D8A0CF
:101E8200053C095E0650D8A0063C0A5E0750D8A061
:101E9200073C0B5EE86AD8A0010E0E5E11D0082640
:101EA2000550D8B0053C09260650D8B0063C0A2693
:101EB2000750D8B0073C0B26E86AD8B0010E0E26B0
:101EC20003360C2ED1D70234083609360A360B36C1
:101ED2000E36045003A012D0085E0550D8A0053C6F
:101EE200095E0650D8A0063C0A5E0750D8A0073CFF
:101EF2000B5EE86AD8A0010E0E5E11D008260550CE
:101F0200D8B0053C09260650D8B0063C0A26075030
:101F1200D8B0073C0B26E86AD8B0010E0E2602366E
:101F2200070E0C6E0234083609360A360B360E36A8
:101F3200045002A012D0085E0550D8A0053C095EEC
:101F42000650D8A0063C0A5E0750D8A0073C0B5E9C
:101F5200E86AD8A0010E0E5E11D008260550D8B04E
:101F6200053C09260650D8B0063C0A260750D8B0D0
:101F7200073C0B26E86AD8B0010E0E2602360C2E5C
:101F8200D1D70134083609360A360B360E360450DC
:101F920002A012D0085E0550D8A0053C095E06508A
:101FA200D8A0063C0A5E0750D8A0073C0B5EE86A40
:101FB200D8A0010E0E5E11D008260550D8B0053CFF
:101FC20009260650D8B0063C0A260750D8B0073C6E
:101FD2000B26E86AD8B0010E0E260136070E0C6EEB
:101FE2000134083609360A360B360E36045001A083
:101FF20012D0085E0550D8A0053C095E0650D8A054
:10200200063C0A5E0750D8A0073C0B5EE86AD8A0DF
:10201200010E0E5E11D008260550D8B0053C0926E7
:102022000650D8B0063C0A260750D8B0073C0B260B
:10203200E86AD8B0010E0E2601360C2ED1D7003434
:10204200083609360A360B360E36045001A012D075
:10205200085E0550D8A0053C095E0650D8A0063C93
:102062000A5E0750D8A0073C0B5EE86AD8A0010EB2
:102072000E5E11D008260550D8B0053C0926065040
:10208200D8B0063C0A260750D8B0073C0B26E86AAF
:10209200D8B0010E0E260036070E0C6E003408363C
:1020A20009360A360B360E36045000A012D0085EEE
:1020B2000550D8A0053C095E0650D8A0063C0A5E31
:1020C2000750D8A0073C0B5EE86AD8A0010E0E5E4E
:1020D20011D008260550D8B0053C09260650D8B0C4
:1020E200063C0A260750D8B0073C0B26E86AD8B04F
:1020F200010E0E2600360C2ED1D700B00ED00450A1
:1021020008260550D8B0053C09260650D8B0063C32
:0C2112000A260750D8B0073C0B2612002C
:10211E0050C154F151C155F152C100F053C101F0FB
:10212E00010E0101525F000E535B0050011015E0CD
:10213E00E9C0E1FFEAC0E2FFE66AE7C000F0E8C0EE
:10214E0001F0F8EC06F054C1E1FF55C1E2FF00C00A
:0C215E00E6FF0101544B552BDFD71200A7
:10216A0050C154F151C155F152C100F053C101F0AF
:10217A00010E0101525F000E535B0050011014E082
:10218A00EFC0E1FFF0C0E2FF54C1E9FF55C1EAFF29
:10219A00EECFE6FFEDC000F0EEC001F0F8EC06F07D
:0A21AA000101544B552BE0D7120041
:1021B4000101506B516BE3C000F0E4C001F0F8EC96
:1021C40006F000C050F1000E0101516F50C100F043
:0621D40051C101F01200F0
:1021DA000C6A0E6A0250D8A406EF11F001C002F090
:1021EA0000C001F0006A0E860250D8A406EF11F072
:1021FA0001C002F0016A0E960E880250D8B418EF98
:10220A0011F00E50035ED8A4D8A01EEF11F0D8909A
:10221A0002BE24EF11F0003601360236032E0DEF0E
:10222A0011F01EEF11F0010E0C6E40EC00F028EFD9
:10223A0011F0020E0C6E54EC00F028EF11F0040EAF
:08224A000C6E61EC00F01200C3
:08225200067EE5EC04F0120029
:10225A000101586B596B51C156F152C157F150C126
:10226A0000F000360090D5C0E1FFD6C0E2FF00C002
:10227A00E6FFD3C000F0D4C001F0F8EC06F000503D
:10228A0001015813000E591353C100F054C101F053
:10229A00010E535F000E545B0050011018E0D5C0C8
:1022AA00E1FFD6C0E2FF56C1E9FF57C1EAFFEECF10
:1022BA00E6FFD3C000F0D4C001F0F8EC06F00050FD
:1022CA0001015813000E5913564B572BDDD75551A0
:1022DA00000A06E1DBC000F0DCC001F0F8EC06F011
:1022EA0001015551010A06E1E3C000F0E4C001F022
:0E22FA00F8EC06F058C100F059C101F01200D6
:102308000101586B596B51C156F152C157F150C177
:1023180000F0003600900080D5C0E1FFD6C0E2FF93
:1023280000C0E6FFD3C000F0D4C001F0F8EC06F01E
:10233800005001015813000E5913010E535F000E8F
:10234800545B5351541116E0D9C0E1FFDAC0E2FFE3
:10235800010EE66ED7C000F0D8C001F0F8EC06F028
:1023680056C1E1FF57C1E2FF00C0E6FF0101564B2D
:10237800572BE3D7D9C0E1FFDAC0E2FFE66AD7C03E
:1023880000F0D8C001F0F8EC06F056C1E1FF57C1E3
:10239800E2FF00C0E6FF01015551000A06E1DBC07B
:1023A80000F0DCC001F0F8EC06F001015551010A1B
:1023B80006E1F1C000F0F2C001F0F8EC06F058C1F7
:0823C80000F059C101F0120000
:1023D0003BD00F012087030E1F6F400E1E6F21851B
:1023E0005CEC0BF080D00F012087010E1F6FA00E58
:1023F0001E6F21855CEC0BF076D00F0120871F6BE0
:10240000CF0E1E6F21855CEC0BF06DD00F01208785
:102410001F6B670E1E6F21855CEC0BF064D00F0103
:1024200020871F6B440E1E6F21855CEC0BF05BD088
:102430000F0120871F6B220E1E6F21855CEC0BF0B5
:1024400052D0060E006E59D0000E006E01012B19FD
:1024500008E100502A1905E1120E291902E128515C
:10246000C00AB7E0000E006E2B1908E100502A19CF
:1024700005E1250E291902E12851800AB4E0000E79
:10248000006E2B1908E100502A1905E14B0E29199D
:1024900002E12851000AB1E0000E006E2B1908E19C
:1024A00000502A1905E1960E291902E12851000A67
:1024B000ADE0000E006E2B1908E100502A1905E16D
:1024C000E10E291902E12851000AA9E02B51000A66
:1024D00008E12A51010A05E12951C20A02E1285105
:1024E000000AA6E0AED7260E0001DF6F050EE06FF2
:0C24F0005A0EE16F010EE26F006A12004C
:1024FC0027D0CF0EAF6EAC84B2EC0BF070D0670E61
:10250C00AF6EAC84B2EC0BF06AD0330EAF6EAC8411
:10251C00B2EC0BF064D0190EAF6EAC84B2EC0BF0D5
:10252C005ED0100EAF6EAC84B2EC0BF058D0080E2F
:10253C00AF6EAC84B2EC0BF052D0060E006E59D0DC
:10254C000101000E006E2B1908E100502A1905E15B
:10255C00120E291902E12851C00ACBE0000E006EC0
:10256C002B1908E100502A1905E1250E291902E161
:10257C002851800AC4E0000E006E2B1908E10050AF
:10258C002A1905E14B0E291902E12851000ABDE078
:10259C00000E006E2B1908E100502A1905E1960E69
:1025AC00291902E12851000AB6E0000E006E2B1921
:1025BC0008E100502A1905E1E10E291902E1285120
:1025CC00000AAFE02B51000A08E12A51010A05E18B
:1025DC002951C20A02E12851000AA9E0AED7B40E73
:1025EC000001DF6F020EE06F5A0EE16F010EE26F19
:0425FC00006A12005F
:1026000027D0CF0EAF6EAC84B2EC0BF070D0670E5B
:10261000AF6EAC84B2EC0BF06AD0330EAF6EAC840C
:10262000B2EC0BF064D0190EAF6EAC84B2EC0BF0D0
:102630005ED0100EAF6EAC84B2EC0BF058D0080E2A
:10264000AF6EAC84B2EC0BF052D0060E006E59D0D7
:102650000101000E006E2B1908E100502A1905E156
:10266000120E291902E12851C00ACBE0000E006EBB
:102670002B1908E100502A1905E1250E291902E15C
:102680002851800AC4E0000E006E2B1908E10050AA
:102690002A1905E14B0E291902E12851000ABDE073
:1026A000000E006E2B1908E100502A1905E1960E64
:1026B000291902E12851000AB6E0000E006E2B191C
:1026C00008E100502A1905E1E10E291902E128511B
:1026D000000AAFE02B51000A08E12A51010A05E186
:1026E0002951C20A02E12851000AA9E0AED7B40E6E
:1026F0000001DF6F020EE06F5A0EE16F010EE26F14
:04270000006A120059
:1027040027D0CF0EAF6EAC84B2EC0BF070D0670E56
:10271400AF6EAC84B2EC0BF06AD0330EAF6EAC8407
:10272400B2EC0BF064D0190EAF6EAC84B2EC0BF0CB
:102734005ED0100EAF6EAC84B2EC0BF058D0080E25
:10274400AF6EAC84B2EC0BF052D0060E006E59D0D2
:102754000101000E006E2B1908E100502A1905E151
:10276400120E291902E12851C00ACBE0000E006EB6
:102774002B1908E100502A1905E1250E291902E157
:102784002851800AC4E0000E006E2B1908E10050A5
:102794002A1905E14B0E291902E12851000ABDE06E
:1027A400000E006E2B1908E100502A1905E1960E5F
:1027B400291902E12851000AB6E0000E006E2B1917
:1027C40008E100502A1905E1E10E291902E1285116
:1027D400000AAFE02B51000A08E12A51010A05E181
:1027E4002951C20A02E12851000AA9E0AED7B40E69
:1027F4000001DF6F020EE06F5A0EE16F010EE26F0F
:04280400006A120054
:102808005DD0010129B102D0929401D092840F01C8
:1028180025957AD0010129B102D0969601D09686E5
:1028280073D0010129B102D0969401D096846CD05E
:10283800010129B102D0949601D0948665D0010196
:1028480029B102D0949801D094885ED0010129B1B1
:1028580002D0949A01D0948A57D0010129B102D0AC
:10286800989001D0988050D0010129B102D093945A
:1028780001D0938449D0010129B102D0989401D0A4
:1028880098840F01239540D0010129B102D0989274
:1028980001D098820F01239337D0010129B102D0CA
:1028A800949601D0948630D0010129B102D0949831
:1028B80001D0948829D0010E006E28D0010128513A
:1028C800000A9FE02851010AA5E02851020AA9E060
:1028D8002851030AADE02851040AB1E02851050A3D
:1028E800B5E02851060AB9E02851070ABDE0285189
:1028F800080AC1E02851090AC7E028510A0ACDE0B0
:0E29080028510B0AD1E0D7D7000E006E120046
:1029160059D0010129B102D0929201D092820F01C1
:10292600259376D0010129B102D0929801D09288E0
:102936006FD0010129B102D0969201D0968268D05B
:10294600010129B102D0949601D0948661D001018B
:1029560029B102D0949801D094885AD0010129B1A6
:1029660002D0949A01D0948A53D0010129B102D0A1
:10297600949401D094844CD0010129B102D0939251
:1029860001D0938245D0010129B102D0949E01D095
:10299600948E3ED0010129B102D0949C01D0948C32
:1029A60037D0010129B102D0949601D0948630D057
:1029B600010129B102D0949801D0948829D0010E42
:1029C600006E28D001012851000AA3E02851010A0F
:1029D600A9E02851020AADE02851030AB1E02851C6
:1029E600040AB5E02851050AB9E02851060ABDE0F7
:1029F6002851070AC1E02851080AC5E02851090AEA
:102A0600C9E028510A0ACDE028510B0AD1E0D7D7F0
:062A1600000E006E12002C
:102A1C0059D0010129B102D0929001D092800F01BE
:102A2C00259176D0010129B102D0949001D09480E7
:102A3C006FD0010129B102D0969001D0968068D058
:102A4C00010129B102D0949601D0948661D0010184
:102A5C0029B102D0949801D094885AD0010129B19F
:102A6C0002D0949A01D0948A53D0010129B102D09A
:102A7C00949201D094824CD0010129B102D0939050
:102A8C0001D0938045D0010129B102D0949E01D090
:102A9C00948E3ED0010129B102D0949C01D0948C2B
:102AAC0037D0010129B102D0949601D0948630D050
:102ABC00010129B102D0949801D0948829D0010E3B
:102ACC00006E28D001012851000AA3E02851010A08
:102ADC00A9E02851020AADE02851030AB1E02851BF
:102AEC00040AB5E02851050AB9E02851060ABDE0F0
:102AFC002851070AC1E02851080AC5E02851090AE3
:102B0C00C9E028510A0ACDE028510B0AD1E0D7D7E9
:062B1C00000E006E120025
:102B220028C12BF129C12CF12AC12DF10DD0280E7B
:102B3200C86EDEEC0BF045D00A0EC86EDEEC0BF070
:102B420040D0040E006E3FD02BC1F6FF2CC1F7FF20
:102B52002DC1F8FF0900F5CF01F00900F5CF02F011
:102B62000900F5CF03F00900F5CF04F00450000A84
:102B720008E10350010A05E10250860A02E1015010
:102B8200A00AD5E02BC1F6FF2CC1F7FF2DC1F8FF3B
:102B92000900F5CF01F00900F5CF02F00900F5CFE9
:102BA20003F00900F5CF04F00450000A08E10350D5
:102BB200060A05E102501A0A02E10150800ABCE04D
:082BC200C0D7000E006E1200E6
:102BCA0028C12BF129C12CF12AC12DF10DD0280ED3
:102BDA00C86EDEEC0BF045D00A0EC86EDEEC0BF0C8
:102BEA0040D0040E006E3FD02BC1F6FF2CC1F7FF78
:102BFA002DC1F8FF0900F5CF01F00900F5CF02F069
:102C0A000900F5CF03F00900F5CF04F00450000ADB
:102C1A0008E10350010A05E10250860A02E1015067
:102C2A00A00AD5E02BC1F6FF2CC1F7FF2DC1F8FF92
:102C3A000900F5CF01F00900F5CF02F00900F5CF40
:102C4A0003F00900F5CF04F00450000A08E103502C
:102C5A00060A05E102501A0A02E10150800ABCE0A4
:082C6A00C0D7000E006E12003D
:102C720028C12BF129C12CF12AC12DF10DD0280E2A
:102C8200C86EDEEC0BF045D00A0EC86EDEEC0BF01F
:102C920040D0040E006E3FD02BC1F6FF2CC1F7FFCF
:102CA2002DC1F8FF0900F5CF01F00900F5CF02F0C0
:102CB2000900F5CF03F00900F5CF04F00450000A33
:102CC20008E10350010A05E10250860A02E10150BF
:102CD200A00AD5E02BC1F6FF2CC1F7FF2DC1F8FFEA
:102CE2000900F5CF01F00900F5CF02F00900F5CF98
:102CF20003F00900F5CF04F00450000A08E1035084
:102D0200060A05E102501A0A02E10150800ABCE0FB
:082D1200C0D7000E006E120094
:102D1A0028C12BF129C12CF12AC12DF12BC100F0B8
:102D2A002CC101F02DC102F000C0F6FF01C0F7FF6F
:102D3A0002C0F8FF0900F5CFE3F00900F5CFE4F08F
:102D4A000900F5CFE5F00900F5CFE6F02BC100F058
:102D5A002CC101F02DC102F0040E0024F66E000E03
:102D6A000120F76E000E0220F86E0900F5CFDBF0A5
:102D7A000900F5CFDCF00900F5CFDDF00900F5CF49
:102D8A00DEF02BC100F02CC101F02DC102F0080EBB
:102D9A000024F66E000E0120F76E000E0220F86E77
:102DAA000900F5CFF1F00900F5CFF2F00900F5CFEF
:102DBA00F3F00900F5CFF4F02BC100F02CC101F0BB
:102DCA002DC102F00C0E0024F66E000E0120F76EE3
:102DDA00000E0220F86E0900F5CFD3F00900F5CFF6
:102DEA00D4F00900F5CFD5F00900F5CFD6F02BC104
:102DFA0000F02CC101F02DC102F0100E0024F66E75
:102E0A00000E0120F76E000E0220F86E0900F5CFC1
:102E1A00D7F00900F5CFD8F00900F5CFD9F00900AD
:062E2A00F5CFDAF0120002
:102E300028C12BF129C12CF12AC12DF12BC100F0A1
:102E40002CC101F02DC102F0300E0026000E01222F
:102E5000022200C02EF101C02FF102C030F1070E96
:102E6000006E000E016E026E036E040E046E000E04
:102E7000056E066E076E89EC0BF001012E510024E1
:102E8000F66E2F510120F76E30510220F86E0900C6
:102E9000F5CFF5F00900F5CFF6F00900F5CFF7F022
:102EA0000900F5CFF8F02BC100F02CC101F02DC1C5
:102EB00002F000C02EF101C02FF102C030F1020E6D
:102EC000006E000E016E026E036E040E046E000EA4
:102ED000056E066E076E89EC0BF02E510024F66E1F
:102EE0002F510120F76E30510220F86E0900F5CF06
:102EF000F9F00900F5CFFAF00900F5CFFBF0090071
:062F0000F5CFFCF0120009
:102F06000101486B496B3C6B3D6B2AC100F02BC13C
:102F160001F02CC102F0010E2A27000E2B232C23D0
:102F260000C0F6FF01C0F7FF02C0F8FF0900F5CFA9
:102F360000F000C039F10052D8B493EF27F03951B0
:102F4600250A0BE028C1E1FF29C1E2FF39C1E6FFEE
:102F5600284B292B484B492BD8D73A6B3B6B3C6BFC
:102F66003D6B23D03C87010E2A27000E2B232C23F2
:102F760059D03C81010E2A27000E2B232C2352D038
:102F86003C83010E2A27000E2B232C234BD03D8792
:102F9600010E2A27000E2B232C2344D03C85010E3C
:102FA6002A27000E2B232C233DD02AC1F6FF2BC146
:102FB600F7FF2CC1F8FF0900F5CF01F001502D0AEB
:102FC600D1E02AC1F6FF2BC1F7FF2CC1F8FF09009B
:102FD600F5CF01F00150200ACCE02AC1F6FF2BC143
:102FE600F7FF2CC1F8FF0900F5CF01F001502B0ABD
:102FF600C7E02AC1F6FF2BC1F7FF2CC1F8FF090075
:10300600F5CF01F00150230AC2E02AC1F6FF2BC119
:10301600F7FF2CC1F8FF0900F5CF01F00150300A87
:10302600BDE001D09ED73CA301D03C913CA701D086
:103036003C952AC1F6FF2BC1F7FF2CC1F8FF09000A
:10304600F5CF00F0000E016E00C050F1E9EC0BF078
:10305600005236E03A6B3B6B3AC100F03BC101F0DF
:103066000A0E046E000E056E70EC0CF02AC1F6FF17
:103076002BC1F7FF2CC1F8FF0900F5CF02F0025073
:1030860000243A6F000E01203B6F300E3A5F000EAF
:103096003B5B010E2A27000E2B232C232AC1F6FFA9
:1030A6002BC1F7FF2CC1F8FF0900F5CF00F0000E89
:1030B600016E00C050F1E9EC0BF00052CDE133D0C7
:1030C6002AC1F6FF2BC1F7FF2CC1F8FF0900F5CF87
:1030D60001F001502A0A27E12DC1E9FF2EC1EAFFBE
:1030E600EECF00F0EECF01F000C0E9FF01C0EAFF2D
:1030F600EECF3AF1EECF3BF12DC1E9FF2EC1EAFF4B
:10310600020EEE24006E000EEE20016E2DC1E1FFD0
:103116002EC1E2FF00C0E6FF01C0E6FF010E2A272E
:10312600000E2B232C232AC1F6FF2BC1F7FF2CC13F
:10313600F8FF0900F5CF01F001502E0A70E1010EEB
:103146002A27000E2B232C232AC1F6FF2BC1F7FFBB
:103156002CC1F8FF0900F5CF01F001502A0A28E139
:103166002DC1E9FF2EC1EAFFEECF00F0EECF01F050
:1031760000C0E9FF01C0EAFFEECF37F1EECF38F12C
:103186002DC1E9FF2EC1EAFF020EEE24006E000EED
:10319600EE20016E2DC1E1FF2EC1E2FF00C0E6FF69
:1031A60001C0E6FF010E2A27000E2B232C2336D062
:1031B600376B386B2AC1F6FF2BC1F7FF2CC1F8FF1E
:1031C6000900F5CF00F0000E016E00C050F1E9ECE9
:1031D6000BF0005223E037C100F038C101F00A0EAF
:1031E600046E000E056E70EC0CF02AC1F6FF2BC1C2
:1031F600F7FF2CC1F8FF0900F5CF02F002500024BA
:10320600376F000E0120386F300E375F000E385BC7
:10321600010E2A27000E2B232C23CCD703D0376B85
:10322600386B3D892AC100F02BC101F02CC102F098
:10323600010E2A27000E2B232C2300C0F6FF01C007
:10324600F7FF02C0F8FF0900F5CF39F1F9D048C100
:1032560000F049C101F097EF27F03C89E3D73D859F
:103266002ED13C8B3D812BD13D8329D13C8D27D15D
:1032760026D13C8B3C8F23D12DC1E9FF2EC1EAFF1D
:10328600EECF00F0EECF01F000C0E9FF01C0EAFF8B
:10329600EECF44F1EECF45F12DC1E9FF2EC1EAFF95
:1032A600020EEE24006E000EEE20016E2DC1E1FF2F
:1032B6002EC1E2FF00C0E6FF01C0E6FF000E451981
:1032C60002E1000E441904E1250E446F000E456F1D
:1032D600466B476B46514425E96E47514521EA6ED8
:1032E600EE520BE0010E4625006E000E4721016EE0
:1032F60000C046F101C047F1EDD7375138110AE059
:103306004751385D02E14651375D04E237C146F167
:1033160038C147F13B51475D02E13A51465D05E24E
:1033260046513A5F47513B5B02D03A6B3B6B3CB729
:1033360016D03AC100F03BC101F0010E3A5F000E13
:103346003B5B005001100BE028C1E1FF29C1E2FF01
:10335600200EE66E284B292B484B492BEAD746C14F
:1033660002F047C103F0010E465D006E000E47599C
:10337600016E00C046F101C047F10250031019E08A
:1033860044C1E9FF45C1EAFF28C1E1FF29C1E2FFC7
:10339600EECFE6FF284B292B010E4425006E000ECA
:1033A6004521016E00C044F101C045F1484B492B4F
:1033B600D6D73CA716D03AC100F03BC101F0010EAA
:1033C6003A5F000E3B5B005001100BE028C1E1FFA5
:1033D60029C1E2FF200EE66E284B292B484B492BCC
:1033E600EAD793D52DC1E9FF2EC1EAFFEECF00F053
:1033F600EECF01F000C0E9FF01C0EAFFEECF39F1E0
:103406002DC1E9FF2EC1EAFF020EEE24006E000E6A
:10341600EE20016E2DC1E1FF2EC1E2FF00C0E6FFE6
:1034260001C0E6FF390E446F010E456F010E466F6F
:10343600000E476F62D7C00E3C13000E3D133FD0FF
:103446003951000AD8B403D739516C0AD8B405D714
:1034560039514C0AD8B401D73951660AD8B4FFD6C7
:103466003951450AD8B4FDD63951650AD8B4FAD6C9
:103476003951670AD8B4F8D639516F0AD8B4F6D696
:103486003951640AD8B4F4D63951690AD8B4F0D699
:103496003951700AD8B4EDD63951580AD8B4E9D69C
:1034A6003951780AD8B4E6D63951730AD8B4E4D675
:1034B6003951630A97E03951750ABDE0B3D7000E5A
:1034C6003C15006E3D51070B016E00500110D8B43B
:1034D6003AEF23F03DA904D0060E376F000E386F81
:1034E6002DC1E9FF2EC1EAFFEECF00F0EECF01F0CD
:1034F60000C0E9FF01C0EAFFEECF3EF1EECF3FF19B
:10350600EECF40F1EECF41F12DC1E9FF2EC1EAFF2A
:10351600040EEE24006E000EEE20016E2DC1E1FFBA
:103526002EC1E2FF00C0E6FF01C0E6FF046A056A9D
:10353600066A076A3EC100F03FC101F040C102F0D1
:1035460041C103F098EC0CF0010ED8B0000E006EED
:10355600005205E0407F030E3C13000E3D13426B04
:10356600436B3EC100F03FC101F040C102F041C1D2
:1035760003F0046A056A066A076AF5EC0BF0000EAA
:10358600D8A4010E006E0052D8B48AD041C100F012
:10359600016A026A036AFF0E0016000E01167E0E0D
:1035A600005E000E015A00C042F101C043F1010E57
:1035B600005E000E015A00C042F101C043F1030E45
:1035C600046E000E056E70EC0CF000C042F101C0F6
:1035D60043F10A0E046E000E056E0CEC0CF000C0F2
:1035E60042F101C043F1800E0118026E800E025CAA
:1035F60002E1000E005C05E2010E0101425F000ED1
:10360600435B010142510008506F7EEC08F03EC159
:1036160004F03FC105F040C106F041C107F0C8EC17
:1036260003F000C044F101C045F102C046F103C0F9
:1036360047F1000E046E000E056E000E066E7F0E3C
:10364600076E44C100F045C101F046C102F047C112
:1036560003F098EC0CF0010ED8B0000E006E00528C
:1036660005E0010E425F000E435B1AD0000E046EA9
:10367600000E056E200E066E820E076E44C100F027
:1036860045C101F046C102F047C103F098EC0CF0C9
:10369600000ED8B0010E006E005202E0424B432BE2
:1036A600800E006E800E4319005C02E14251000854
:1036B60003E3010E396F02D042C139F13DB118D092
:1036C6003DA315D0800E4319006E7F0E005C02E10B
:1036D600FC0E425D0BE3800E4319006E800E381916
:1036E600005C02E13751425D01E201D001D0F1D325
:1036F6003751381106E03DA304D0010E375F000EA6
:10370600385B000E006E3851005C02E13751080844
:1037160003E2080E396F02D037C139F13EC100F01D
:103726003FC101F040C102F041C103F0046A056ADD
:10373600066A076AF5EC0BF0000ED8A4010E006EBF
:103746000052D8B44BD142C150F17EEC08F000C013
:1037560004F001C005F002C006F003C007F03EC148
:1037660000F03FC101F040C102F041C103F0C0ECDE
:1037760007F000C03EF101C03FF102C040F103C0B6
:1037860041F1010139510008506F7EEC08F000C08C
:1037960004F001C005F002C006F003C007F03EC108
:1037A60000F03FC101F040C102F041C103F0C0EC9E
:1037B60007F000C04AF101C04BF102C04CF103C052
:1037C6004DF14AC13EF14BC13FF14CC140F14DC1F3
:1037D60041F14AC100F04BC101F04CC102F04DC1AC
:1037E60003F025EC07F012EC07F000C004F001C06E
:1037F60005F002C006F003C007F04AC100F04BC155
:1038060001F04CC102F04DC103F029EC11F0000E9D
:10381600046E000E056E000E066E7E0E076E98ECA8
:103826000CF0000ED8B0010E006E00521AE03EC138
:1038360000F03FC101F040C102F041C103F0000EAB
:10384600046E000E056E000E066E7E0E076EE5EC2B
:1038560004F000C03EF101C03FF102C040F103C0D8
:1038660041F13EC100F03FC101F040C102F041C14B
:1038760003F025EC07F001013951010F096E0A6AC0
:10388600000E0A2209C004F00AC005F0000E0ABEA6
:10389600FF0E066E076E04360490053606360736AA
:1038A600043604900536063607367C0E0424F66E7A
:1038B6005B0E0520F76E000E0620F86E0900F5CFA8
:1038C60005F00900F5CF06F00900F5CF07F009006D
:1038D600F5CF08F00850035C08E10750025C05E1EB
:1038E6000650015C02E10550005C1EE301013EC189
:1038F60000F03FC101F040C102F041C103F0CD0E1E
:10390600046ECC0E056E4C0E066E7B0E076EC8EC72
:1039160003F000C03EF101C03FF102C040F103C018
:1039260041F1424B432B5AD03EC100F03FC101F05A
:1039360040C102F041C103F025EC07F039C104F0A3
:10394600000E056E066E076E0436049005360636C2
:103956000736043604900536063607367C0E0424F0
:10396600F66E5B0E0520F76E000E0620F86E090057
:10397600F5CF05F00900F5CF06F00900F5CF07F001
:103986000900F5CF08F00850035C08E10750025C17
:1039960005E10650015C02E10550005C1FE20101F1
:1039A6003EC100F03FC101F040C102F041C103F049
:1039B600000E046E000E056E200E066E820E076E59
:1039C600C8EC03F000C03EF101C03FF102C040F177
:1039D60003C041F1010E425F000E435B01013DA3AE
:1039E60093D03DB791D0800E000A006E800E381934
:1039F600005C02E137510A0804E20A0E376F000E36
:103A0600386F3EC100F03FC101F040C102F041C134
:103A160003F025EC07F000C044F101C045F102C0F7
:103A260046F103C047F1445145114611471142E0A2
:103A36000A0E046E000E056E066E076E44C100F097
:103A460045C101F046C102F047C103F019EC0FF081
:103A560008C000F009C001F00AC002F00BC003F074
:103A6600000E046E031808E10450021805E1045024
:103A7600011802E10050000A1DE1010E375F000E39
:103A8600385B0A0E046E000E056E066E076E44C1A4
:103A960000F045C101F046C102F047C103F019EC40
:103AA6000FF000C044F101C045F102C046F103C069
:103AB60047F1B9D7800E3819006E800E005C02E11E
:103AC6003951375D21E23751395D506F7EEC08F090
:103AD60000C004F001C005F002C006F003C007F004
:103AE6003EC100F03FC101F040C102F041C103F008
:103AF600C0EC07F000C03EF101C03FF102C040F14A
:103B060003C041F137C139F1050E01013725006EB9
:103B1600000E3821016E00503A5F01503B5B375171
:103B2600381103E13DB701D004D0010E3A5F000E13
:103B36003B5B030E3C15006E3DC101F0000E011605
:103B46000050011004E0010E3A5F000E3B5B3CA5FD
:103B560039D03CA312D03CA103D02D0E2F6F02D03A
:103B66002B0E2F6F28C1E1FF29C1E2FF2FC1E6FF0F
:103B7600284B292B484B492B0CD03CA10AD028C1F5
:103B8600E1FF29C1E2FF200EE66E284B292B484BA8
:103B9600492B800E006E800E3B19005C02E13A5103
:103BA60000080FE228C1E1FF29C1E2FF300EE66EF0
:103BB600284B292B484B492B010E3A5F000E3B5BE5
:103BC600E8D73AD03CB718D0800E006E800E3B196D
:103BD600005C02E13A5100080FE228C1E1FF29C169
:103BE600E2FF200EE66E284B292B484B492B010E8F
:103BF6003A5F000E3B5BE8D73CA312D03CA103D052
:103C06002D0E306F02D02B0E306F28C1E1FF29C177
:103C1600E2FF30C1E6FF284B292B484B492B0CD03D
:103C26003CA10AD028C1E1FF29C1E2FF200EE66EC1
:103C3600284B292B484B492B3EC100F03FC101F0D0
:103C460040C102F041C103F025EC07F000C044F189
:103C560001C045F102C046F103C047F139C100F089
:103C6600000E016E026E036E0036009001360236BB
:103C76000336003600900136023603367C0E0024E9
:103C8600F66E5B0E0120F76E000E0220F86E09003C
:103C9600F5CF04F00900F5CF05F00900F5CF06F0E1
:103CA6000900F5CF07F044C100F045C101F046C157
:103CB60002F047C103F019EC0FF0300E002628C1C0
:103CC600E1FF29C1E2FF00C0E6FF284B292B484B44
:103CD600492B3751381103E13DB701D06FD028C1C8
:103CE600E1FF29C1E2FF2E0EE66E284B292B484B39
:103CF600492B3951375F000E385B39534DE0390790
:103D060039C100F0000E016E026E036E003600909F
:103D16000136023603360036009001360236033687
:103D26007C0E0024F66E5B0E0120F76E000E02205C
:103D3600F86E0900F5CF04F00900F5CF05F009008B
:103D4600F5CF06F00900F5CF07F044C100F045C1F4
:103D560001F046C102F047C103F019EC0FF00A0E5C
:103D6600046E000E056E066E076E19EC0FF008C0A5
:103D760000F009C001F00AC002F00BC003F0300EDB
:103D8600002628C1E1FF29C1E2FF00C0E6FF284B5B
:103D9600292B484B492BB1D7375138110FE028C191
:103DA600E1FF29C1E2FF300EE66E284B292B484B76
:103DB600492B010E375F000E385BEED73CAB0BD0BC
:103DC60028C1E1FF29C1E2FF450EE66E284B292BEB
:103DD600484B492B0AD028C1E1FF29C1E2FF650EF5
:103DE600E66E284B292B484B492B800E4319006E53
:103DF600800E005C02E1000E425D11E242510008B5
:103E0600426F4351000E435728C1E1FF29C1E2FF2B
:103E16002D0EE66E284B292B484B492B0AD028C17C
:103E2600E1FF29C1E2FF2B0EE66E284B292B484BFA
:103E3600492B0A0E046E000E056E42C100F043C106
:103E460001F00CEC0CF0300E002628C1E1FF29C170
:103E5600E2FF00C0E6FF0101284B292B484B492B06
:103E66000A0E046E000E056E42C100F043C101F059
:103E76000CEC0CF008C000F009C001F0300E002672
:103E860028C1E1FF29C1E2FF00C0E6FF0101284B7E
:103E9600292B484B492B3CA71AD0800E006E800E6A
:103EA6003B19005C02E13A51000811E228C1E1FF2A
:103EB60029C1E2FF200EE66E284B292B484B492BE1
:103EC600010E3A5F000E3B5B3A513B11EFE188EF82
:103ED60017F03DA3F3D0800E4319006E800E005CF0
:103EE60002E1000E425D0AE2010E425D006E000E26
:103EF6004359016E0050375F0150385B3EC100F0F8
:103F06003FC101F040C102F041C103F025EC07F0CA
:103F160000C044F101C045F102C046F103C047F1BB
:103F2600010E396F39510A0A34E039C100F0000E2A
:103F3600016E026E036E00360090013602360336BD
:103F4600003600900136023603367C0E0024F66EEB
:103F56005B0E0120F76E000E0220F86E0900F5CF09
:103F660001F00900F5CF02F00900F5CF03F00900D2
:103F7600F5CF04F00450475D08E10350465D05E1C6
:103F86000250455D02E10150445D01E202D0392B49
:103F9600C9D73951375D4E6F000E38594F6F4EC134
:103FA60037F14FC138F144C100F045C101F046C1B7
:103FB60002F047C103F012EC07F000C004F001C0A4
:103FC60005F002C006F003C007F03EC100F03FC195
:103FD60001F040C102F041C103F029EC11F000C02C
:103FE6004AF101C04BF102C04CF103C04DF14EC184
:103FF60050F17EEC08F04AC104F04BC105F04CC10B
:1040060006F04DC107F0C8EC03F0000E046E000E7A
:10401600056E000E066E7E0E076EE5EC04F025ECCE
:1040260007F000C044F101C045F102C046F103C0EB
:1040360047F13751381142E00A0E046E000E056E44
:10404600066E076E44C100F045C101F046C102F09C
:1040560047C103F019EC0FF008C000F009C001F0E9
:104066000AC002F00BC003F0000E046E031808E14C
:104076000450021805E10450011802E10050000A3C
:104086001DE10A0E046E000E056E066E076E44C133
:1040960000F045C101F046C102F047C103F019EC3A
:1040A6000FF000C044F101C045F102C046F103C063
:1040B60047F1010E375F000E385BBBD7800E006EEE
:1040C600800E3819005C02E137510C0816E337C13F
:1040D60050F198EC0DF03EC104F03FC105F040C12F
:1040E60006F041C107F0E5EC04F000C03EF101C066
:1040F6003FF102C040F103C041F13EC100F03FC1B3
:1041060001F040C102F041C103F0046A056A066A83
:10411600076AF5EC0BF0000ED8A4010E006E0052F3
:10412600D8B477D03EC100F03FC101F040C102F0E3
:1041360041C103F025EC07F0000E046E031808E1F8
:104146000450021805E10450011802E10050000A6B
:1041560060E1800E006E800E4319005C02E1425160
:10416600010857E242C150F17EEC08F000C004F0AD
:1041760001C005F002C006F003C007F03EC100F022
:104186003FC101F040C102F041C103F0C0EC07F0AD
:104196005F0E046E700E056E090E066E810E076EBA
:1041A60098EC0CF0010ED8B0000E006E005206E03E
:1041B600090E0101425F000E435B05D00101080EA6
:1041C600425F000E435B42C150F17EEC08F000C036
:1041D60004F001C005F002C006F003C007F03EC1BE
:1041E60000F03FC101F040C102F041C103F0C0EC54
:1041F60007F025EC07F000C044F101C045F102C00C
:1042060046F103C047F101013E6B3F6B406B416BCA
:1042160038D03EC100F03FC101F040C102F041C1BB
:1042260003F025EC07F000C044F101C045F102C0DF
:1042360046F103C047F144C100F045C101F046C153
:1042460002F047C103F012EC07F000C004F001C011
:1042560005F002C006F003C007F03EC100F03FC102
:1042660001F040C102F041C103F029EC11F000C099
:104276003EF101C03FF102C040F103C041F1426B83
:10428600436B010E396F39510A0A34E039C100F027
:10429600000E016E026E036E003600900136023685
:1042A6000336003600900136023603367C0E0024B3
:1042B600F66E5B0E0120F76E000E0220F86E090006
:1042C600F5CF01F00900F5CF02F00900F5CF03F0B4
:1042D6000900F5CF04F00450475D08E10350465D40
:1042E60005E10250455D02E10150445D01E202D064
:1042F600392BC9D739513725006E000E3821016E8A
:10430600425100264351012200503A5F01503B5B67
:104316003DB704D03751381101E104D0010E3A5FA0
:10432600000E3B5B030E3C15006E3DC101F0000E16
:1043360001160050011004E0010E3A5F000E3B5BCF
:104346003CA539D03CA312D03CA103D02D0E316F31
:1043560002D02B0E316F28C1E1FF29C1E2FF31C126
:10436600E6FF284B292B484B492B0CD03CA10AD001
:1043760028C1E1FF29C1E2FF200EE66E284B292B5A
:10438600484B492B800E006E800E3B19005C02E103
:104396003A5100080FE228C1E1FF29C1E2FF300EC1
:1043A600E66E284B292B484B492B010E3A5F000E2F
:1043B6003B5BE8D73AD03CB718D0800E006E800E33
:1043C6003B19005C02E13A5100080FE228C1E1FF07
:1043D60029C1E2FF200EE66E284B292B484B492BBC
:1043E600010E3A5F000E3B5BE8D73CA312D03CA11E
:1043F60003D02D0E326F02D02B0E326F28C1E1FF93
:1044060029C1E2FF32C1E6FF284B292B484B492B35
:104416000CD03CA10AD028C1E1FF29C1E2FF200E41
:10442600E66E284B292B484B492B39C100F039073A
:1044360000524CE039C100F0000E016E026E036EB0
:1044460000360090013602360336003600900136FB
:10445600023603367C0E0024F66E5B0E0120F76EE4
:10446600000E0220F86E0900F5CF04F00900F5CF22
:1044760005F00900F5CF06F00900F5CF07F044C1B5
:1044860000F045C101F046C102F047C103F019EC46
:104496000FF00A0E046E000E056E066E076E19EC1E
:1044A6000FF008C000F009C001F00AC002F00BC00E
:1044B60003F0300E002628C1E1FF29C1E2FF00C04B
:1044C600E6FF284B292B484B492BAFD7800E006EB1
:1044D600800E4319005C02E1425100080FE228C138
:1044E600E1FF29C1E2FF300EE66E284B292B484B2F
:1044F600492B010E425F000E435BE8D7800E000A8F
:10450600006E800E3819005C02E13751080803E29C
:10451600080E396F02D037C139F13951375F000EB5
:10452600385B395303E13DB701D00AD028C1E1FF1A
:1045360029C1E2FF2E0EE66E284B292B484B492B4C
:1045460039C150F17EEC08F03EC104F03FC105F0E0
:1045560040C106F041C107F0C8EC03F0FFEC0CF0D7
:1045660000C044F101C045F102C046F103C047F165
:1045760039534DE0390739C100F0000E016E026E65
:10458600036E003600900136023603360036009080
:104596000136023603367C0E0024F66E5B0E0120D1
:1045A600F76E000E0220F86E0900F5CF04F0090040
:1045B600F5CF05F00900F5CF06F00900F5CF07F0B5
:1045C60044C100F045C101F046C102F047C103F005
:1045D60019EC0FF00A0E046E000E056E066E076EDD
:1045E60019EC0FF008C000F009C001F00AC002F093
:1045F6000BC003F0300E002628C1E1FF29C1E2FFFF
:1046060000C0E6FF284B292B484B492BB1D7375121
:1046160038110FE028C1E1FF29C1E2FF300EE66E36
:10462600284B292B484B492B010E375F000E385B70
:10463600EED73CA71AD0800E006E800E3B19005CA8
:1046460002E13A51000811E228C1E1FF29C1E2FF67
:10465600200EE66E284B292B484B492B010E3A5F5C
:10466600000E3B5B3A513B11EFE188EF17F0C00EAD
:104676003C15016E3DC102F0000E0216000E021836
:1046860002E1000E0118D8A480D03CA927D02DC184
:10469600E9FF2EC1EAFFEECF00F0EECF01F000C039
:1046A600E9FF01C0EAFFEECF44F1EECF45F1EECFD0
:1046B60046F1EECF47F12DC1E9FF2EC1EAFF040E08
:1046C600EE24006E000EEE20016E2DC1E1FF2EC11C
:1046D600E2FF00C0E6FF01C0E6FF2FD02DC1E9FFD3
:1046E6002EC1EAFFEECF00F0EECF01F000C0E9FFE9
:1046F60001C0EAFFEECF00F0EECF01F0000E01BEE2
:10470600FF0E026E036E00C044F101C045F102C007
:1047160046F103C047F12DC1E9FF2EC1EAFF020EA3
:10472600EE24006E000EEE20016E2DC1E1FF2EC1BB
:10473600E2FF00C0E6FF01C0E6FF800E4719006EEB
:10474600800E005C08E1000E465D05E1000E455D49
:1047560002E1000E445D18E2030E3C13000E3D1309
:10476600006A016A026A036A4451005E4551015AB1
:104776004651025A4751035A00C044F101C045F15F
:1047860002C046F103C047F14ED03CA927D02DC147
:10479600E9FF2EC1EAFFEECF00F0EECF01F000C038
:1047A600E9FF01C0EAFFEECF44F1EECF45F1EECFCF
:1047B60046F1EECF47F12DC1E9FF2EC1EAFF040E07
:1047C600EE24006E000EEE20016E2DC1E1FF2EC11B
:1047D600E2FF00C0E6FF01C0E6FF25D02DC1E9FFDC
:1047E6002EC1EAFFEECF00F0EECF01F000C0E9FFE8
:1047F60001C0EAFFEECF44F1EECF45F1000E466F61
:10480600476F2DC1E9FF2EC1EAFF020EEE24006EAE
:10481600000EEE20016E2DC1E1FF2EC1E2FF00C0A9
:10482600E6FF01C0E6FF000E381902E1000E371957
:104836000FE1000E006E471908E10050461905E128
:104846000050451902E14451000A02E1374B382B6A
:10485600C00E3C15006E00C005F0AED0010E396FDB
:1048660039510A0A34E039C100F0000E016E026EB9
:10487600036E00360090013602360336003600908D
:104886000136023603367C0E0024F66E5B0E0120DE
:10489600F76E000E0220F86E0900F5CF01F0090050
:1048A600F5CF02F00900F5CF03F00900F5CF04F0CB
:1048B6000450475D08E10350465D05E10250455D41
:1048C60002E10150445D01E202D0392BC9D782D002
:1048D600010E396F3951080A34E039C100F0000E73
:1048E600016E026E036E0036009001360236033604
:1048F60000360090013602360336A40E0024F66E0A
:104906005B0E0120F76E000E0220F86E0900F5CF4F
:1049160001F00900F5CF02F00900F5CF03F0090018
:10492600F5CF04F00450475D08E10350465D05E10C
:104936000250455D02E10150445D01E202D0392B8F
:10494600C9D748D0010E396F39510C0A34E039C144
:1049560000F0000E016E026E036E00360090013606
:1049660002360336003600900136023603364C0E08
:104976000024F66E5B0E0120F76E000E0220F86E24
:104986000900F5CF01F00900F5CF02F00900F5CFD7
:1049960003F00900F5CF04F00450475D08E1035029
:1049A600465D05E10250455D02E10150445D01E2CC
:1049B60002D0392BC9D70ED00550000AD8B44ED72D
:1049C6000550C00AD8B44AD70550800A81E0055080
:1049D600400AB8E0800E006E800E3819005C02E1D5
:1049E6003751395D03E237C139F10DD0800E3819E0
:1049F600006E800E005C02E13951375D04E239C178
:104A060037F1000E386F3A513B110EE0030E3C159C
:104A1600006E3DC101F0000E01160050011004E0C9
:104A2600010E3A5F000E3B5B800E3819006E800E59
:104A36003B19005C02E13A51375D05E237513A5FB6
:104A460038513B5B02D03A6B3B6BC40E3C15016E92
:104A56003D51080B026E0250080A02E1400E011891
:104A660008E13A513B1104E0010E3A5F000E3B5B50
:104A76001CD0C00E3C15016E3D51080B026E025053
:104A8600080A02E1800E011810E1800E006E800E09
:104A96003B19005C02E13A51020805E2020E3A5F58
:104AA600000E3B5B02D03A6B3B6B3CA55DD03CA352
:104AB60012D03CA103D02D0E336F02D02B0E336FD4
:104AC60028C1E1FF29C1E2FF33C1E6FF284B292BAC
:104AD600484B492B34D03CA10BD028C1E1FF29C15A
:104AE600E2FF200EE66E284B292B484B492B27D098
:104AF600C00E3C15016E3D51080B026E0250080AAD
:104B060002E1800E01181BE128C1E1FF29C1E2FF85
:104B1600300EE66E284B292B484B492B3CAB03D075
:104B2600580E346F02D0780E346F28C1E1FF29C1C8
:104B3600E2FF34C1E6FF284B292B484B492B3A515B
:104B46003B1111E028C1E1FF29C1E2FF300EE66EFC
:104B5600284B292B484B492B010E3A5F000E3B5B35
:104B66003A513B11EFE174D03A513B1113E03CB797
:104B760011D028C1E1FF29C1E2FF200EE66E284BC5
:104B8600292B484B492B010E3A5F000E3B5B3A51ED
:104B96003B11EFE13CA312D03CA103D02D0E356FA3
:104BA60002D02B0E356F28C1E1FF29C1E2FF35C1C6
:104BB600E6FF284B292B484B492B0CD03CA10AD0A9
:104BC60028C1E1FF29C1E2FF200EE66E284B292B02
:104BD600484B492BC00E3C15016E3D51080B026E29
:104BE6000250080A02E1400E01180BE128C1E1FF5C
:104BF60029C1E2FF300EE66E284B292B484B492B84
:104C060027D0C00E3C15016E3D51080B026E0250B6
:104C1600080A02E1800E01181BE128C1E1FF29C143
:104C2600E2FF300EE66E284B292B484B492B3CAB56
:104C360003D0580E366F02D0780E366F28C1E1FFCA
:104C460029C1E2FF36C1E6FF284B292B484B492BE9
:104C5600800E006E800E3819005C02E13751395D16
:104C66000BE228C1E1FF29C1E2FF300EE66E284BB8
:104C7600292B484B492BECD737C100F038C101F03E
:104C8600010E375F000E385B00500110D8B42AD1F0
:104C9600C00E3C15006E00C04AF10AD137C100F0C3
:104CA60038C101F0000E38BFFF0E026E036E0036EB
:104CB6000090013602360336003600900136023681
:104CC60003367C0E0024F66E5B0E0120F76E000E96
:104CD6000220F86E0900F5CF04F00900F5CF05F0C3
:104CE6000900F5CF06F00900F5CF07F044C100F042
:104CF60045C101F046C102F047C103F019EC0FF0BF
:104D06000A0E046E000E056E066E076E19EC0FF0A5
:104D160008C000F009C001F00AC002F00BC003F0A1
:104D2600300E0024396FD3D03CAB45D037C100F0EC
:104D360038C101F0000E38BFFF0E026E036E00365A
:104D460000900136023603360036009001360236F0
:104D56000336A40E0024F66E5B0E0120F76E000EDD
:104D66000220F86E0900F5CF04F00900F5CF05F032
:104D76000900F5CF06F00900F5CF07F044C100F0B1
:104D860045C101F046C102F047C103F019EC0FF02E
:104D96000F0E0016000E011602160316010E002451
:104DA600F66E5C0E0120F76E000E0220F86E09000A
:104DB600F5CF39F144D037C100F038C101F0000E0B
:104DC60038BFFF0E026E036E0036009001360236C3
:104DD600033600360090013602360336A40E002450
:104DE600F66E5B0E0120F76E000E0220F86E0900CB
:104DF600F5CF04F00900F5CF05F00900F5CF06F070
:104E06000900F5CF07F044C100F045C101F046C1E5
:104E160002F047C103F019EC0FF00F0E0016000E5A
:104E2600011602160316F00E0024F66E5B0E012024
:104E3600F76E000E0220F86E0900F5CF39F147D063
:104E460037C100F038C101F0000E38BFFF0E026E08
:104E5600036E0036009001360236033600360090A7
:104E66000136023603364C0E0024F66E5B0E012028
:104E7600F76E000E0220F86E0900F5CF04F0090067
:104E8600F5CF05F00900F5CF06F00900F5CF07F0DC
:104E960044C100F045C101F046C102F047C103F02C
:104EA60019EC0FF0070E0014396F300E39270FD0AA
:104EB6004A51000AD8B4F2D64A51C00AD8B4EED63E
:104EC6004A51800AD8B430D74A51400AB9E028C1BD
:104ED600E1FF29C1E2FF39C1E6FF284B292B484BE8
:104EE600492BCAD63CA71AD0800E006E800E3B19FD
:104EF600005C02E13A51000811E228C1E1FF29C134
:104F0600E2FF200EE66E284B292B484B492B010E5B
:104F16003A5F000E3B5B3A513B11EFE188EF17F029
:0A4F260048C100F049C101F012007B
:104F300028C129F10001EB51010A30E1BF0E010146
:104F40002917FBC0E1FFFCC0E2FFE66AF9C000F0F0
:104F5000FAC001F0F8EC06F0290E0101506F010EC5
:104F6000516F010E526F000E536FB5EC10F02A0E08
:104F7000506F010E516F010E526F000E536F8FEC88
:104F800010F0FBC0E1FFFCC0E2FF010EE66EF9C0CD
:104F900000F0FAC001F0F8EC06F01ED0DAEC10F0E8
:104FA000ECC050F1290E516F010E526F010E536F7C
:104FB000000E546F010E556F2DEC11F0ECC050F146
:104FC0002A0E0101516F010E526F010E536F000E38
:0E4FD000546F556B84EC11F02AC100F01200F2
:104FDE0028C104F029C105F004C002F005C003F099
:104FEE00044A052A2AC100F02BC101F001012A4B07
:104FFE002B2B00C0E9FF01C0EAFF02C0E1FF03C096
:10500E00E2FFEECFE6FF02C0E9FF03C0EAFFEE5279
:0E501E0001E0E2D728C100F029C101F0120024
:10502C0000C008F00150006E016A026A036A0B6A44
:10503C000C6A016A026A036A960E036E0A6A00AE73
:10504C002EEF28F0081E001E082AD8B4002A0A8E5B
:10505C0000C001F008C000F0086A026AEDEC10F024
:02506C00120030
:10506E00340E0C6EF10E0D6E0D2EFED70C2EFCD7DF
:06507E000000000012001A
:105084002A0E0101286F52DF00C021F1290E01010F
:10509400286F4CDF00C022F1280E0101286F46DF83
:1050A40000C023F121C119F1000E01011A6F1B6F19
:1050B4001C6F1BC11CF11AC11BF119C11AF1196B28
:1050C40022511913000E1A131B131C131BC11CF1BC
:1050D4001AC11BF119C11AF1196B23511913000ECE
:1050E4001A131B131C13FF0E1917FF0E1A17FF0EAA
:1050F4001B17000E1C1719C100F01AC101F01BC1C7
:1051040002F01CC103F012EC07F000C01DF101C055
:105114001EF102C01FF103C020F1000E046E000E48
:10512400056E000E066E8B0E076E1DC100F01EC1CB
:1051340001F01FC102F020C103F0C0EC07F000C071
:105144001DF101C01EF102C01FF103C020F11DC1F9
:1051540000F01EC101F01FC102F020C103F01200D3
:1051640001011C6B19C1E9FF1AC1EAFFEECF1BF163
:105174001B51000A0FE01BC15AF15AEC01F0010166
:105184001C2B1C511925E96E000E1A21EA6EEECF74
:065194001BF1EED7120032
:10519A0018D01AC128F11BC129F10EEC15F01CD048
:1051AA001AC128F11BC129F18BEC14F015D01AC1D0
:1051BA0028F11BC129F104EC14F00ED0010E006E87
:1051CA000BD001011951000AE4E01951010AE8E083
:0A51DA001951020AECE0F2D71200AE
:1051E4001ED01AC128F11BC129F11CC12AF139ECC6
:1051F40016F020D01AC128F11BC129F11CC12AF1D3
:10520400E5EC15F017D01AC128F11BC129F11CC116
:105214002AF191EC15F00ED0010E006E0BD00101B5
:105224001951000ADEE01951010AE4E01951020A99
:06523400EAE0F2D71200CF
:10523A002C0E0101286F77DE00C019F12B0E010137
:10524A00286F71DE00C01AF119C11BF1000E0101AD
:10525A001C6F1BC11CF11B6B1A511B13000E1C1374
:10526A001BC100F01CC101F0DCDE00C01DF101C051
:10527A001EF102C01FF103C020F1000E046E000EE1
:10528A00056E700E066E870E076E1DC100F01EC1F8
:10529A0001F01FC102F020C103F0C0EC07F000C00A
:1052AA001DF101C01EF102C01FF103C020F11DC192
:1052BA0000F01EC101F01FC102F020C103F0000E70
:1052CA00046E000E056E2A0E066E840E076EE5EC5D
:1052DA0004F000C01DF101C01EF102C01FF103C09D
:1052EA0020F11DC100F01EC101F01FC102F020C152
:0452FA0003F01200AB
:1052FE001FC1ECF00001EB6B1CC128F11DC129F19F
:10530E001EC12AF18DEC16F019C128F11AC129F12E
:0A531E001BC12AF118EC17F0120071
:10532800030E0B6E080E0C6E770E0D6E0D2EFED74B
:0A5338000C2EFCD70B2EFAD7120042
:105342001E0E0101266F010E276F19C128F11AC125
:1053520029F11BC12AF11CC12BF11DC12CF1260E12
:105362002D6F010E2E6F83EC17F000C024F101C0E7
:1053720025F100501925E16E01501A21E26EE66A0C
:0A53820024C100F025C101F0120063
:10538C002FD01AC128F11BC129F11CC12AF11DC152
:10539C002BF182EC13F032D01AC128F11BC129F188
:1053AC001CC12AF11DC12BF100EC13F027D01AC13E
:1053BC0028F11BC129F11CC12AF11DC12BF1E8EC0C
:1053CC0011F01CD01AC128F11BC129F11CC12AF102
:1053DC001DC12BF17EEC12F011D0010E006E0ED01F
:1053EC0001011951000ACDE01951010AD5E01951FA
:0E53FC00020ADDE01951100AE5E0EFD71200B9
:10540A000101256B266B19C121F11AC122F11BC1B9
:10541A0023F11CC124F12451FF0A08E12351FF0A98
:10542A0005E12251FF0A02E12151FF0A0CE11DC1E7
:10543A0028F11EC129F1210E2A6F000E2B6FCADD39
:10544A00030E006EEBD1010E1F6F23AF0ED0800E3C
:10545A002319006E00C023F11F2B1DC1E1FF1EC1DD
:10546A00E2FF2D0EE66E1D4B1E2B000E006E241958
:10547A0008E10050231905E10050221902E12151E7
:10548A00000A0BE11DC128F11EC129F11A0E2A6F6B
:10549A00000E2B6F9FDD006AC1D12451FF0A08E17B
:1054AA002351000A05E12251000A02E12151000AB2
:1054BA000CE11DC128F11EC129F11C0E2A6F000E34
:1054CA002B6F88DD1FC100F0A9D1000E046E000EFB
:1054DA00056E000E066E7F0E076E21C100F022C116
:1054EA0001F023C102F024C103F098EC0CF0010E84
:1054FA00D8B0000E006E00521CE021C100F022C19B
:10550A0001F023C102F024C103F0000E046E000E64
:10551A00056E200E066E820E076EC8EC03F000C000
:10552A0021F101C022F102C023F103C024F12607B0
:10553A00CCD7000E046E000E056E200E066E820E8B
:10554A00076E21C100F022C101F023C102F024C17B
:10555A0003F098EC0CF0000ED8B0010E006E005269
:10556A001CE021C100F022C101F023C102F024C1D4
:10557A0003F0CD0E046ECC0E056E4C0E066E7B0E3D
:10558A00076EC8EC03F000C021F101C022F102C08D
:10559A0023F103C024F1262BCCD7FF0E2115086E68
:1055AA00FF0E2215096E7F0E23150A6E000E2415B2
:1055BA000B6E08C004F009C005F00AC006F00BC063
:1055CA0007F004360490053606360736000E211514
:1055DA00006E000E2215016E000E2315026EFF0EDC
:1055EA002415036E00C021F101C022F102C023F18B
:1055FA0003C024F104502111006E05502211016EDE
:10560A0006502311026E07502411036E00C021F1C7
:10561A0001C022F102C023F103C024F17F0E245DF0
:10562A00006E00C020F1010E246F00C004F021C1F9
:10563A0000F022C101F023C102F024C103F004509A
:10564A0007E000360090013602360336FF0FF8D71E
:10565A0000C021F101C022F102C023F103C024F1EC
:10566A001DC1E1FF1EC1E2FF2451300FE66E1D4B42
:10567A001E2B800E2619006E800E010A005C08E3BC
:10568A00800E060A006E800E2619005C01E30AD01D
:10569A001DC1E1FF1EC1E2FF2E0EE66E1D4B1E2B41
:1056AA00010E256F060E206F2051000A54E0246B6C
:1056BA0021C100F022C101F023C102F024C103F08C
:1056CA000036009001360236033600360090013665
:1056DA000236033621510026225101222351022289
:1056EA002451032200C021F101C022F102C023F19A
:1056FA0003C024F121C100F022C101F023C102F04C
:10570A0024C103F00036009001360236033600C089
:10571A0021F101C022F102C023F103C024F11DC10D
:10572A00E1FF1EC1E2FF2451300FE66E1D4B1E2B16
:10573A002551000A0EE126072651000A0AE11DC179
:10574A00E1FF1EC1E2FF2E0EE66E1D4B1E2B010E5F
:10575A00256F2007A9D7FF0E1D25E96EFF0E1E2112
:10576A00EA6EEE50300A05E1010E1D5F000E1E5B67
:10577A00F2D7FF0E1D25E96EFF0E1E21EA6EEE50CE
:10578A002E0A04E1010E1D5F000E1E5B2651000A5F
:10579A003FE01DC1E1FF1EC1E2FF650EE66E1D4B33
:1057AA001E2B800E2619006E800E000A005C0BE28A
:1057BA001DC1E1FF1EC1E2FF2D0EE66E1D4B1E2B21
:1057CA0026510008266F26C120F1265109080FE24A
:1057DA000A0E046E20C100F087EC04F01DC1E1FF3F
:1057EA001EC1E2FF0050300FE66E1D4B1E2B0A0E43
:1057FA00046E20C100F087EC04F008C000F01DC15F
:10580A00E1FF1EC1E2FF0050300FE66E1D4B1E2B5A
:0E581A001DC1E1FF1EC1E2FFE66A006A120036
:10582800010E0101196F070E1A6F010E1B6FB1DC13
:10583800010E0101196F020E1A6F1B6BAADC010120
:10584800196B060E1A6F1B6BA4DC0101196B1A6B1E
:105858001B6B9FDC0101196B020E1A6F1B6B99DC25
:105868000101196B010E1A6F1B6B93DC8B928980F7
:105878008B908D90996A010E0101196F1D0E1A6F98
:105888005C0E1B6F000E1C6FA9DC100E0101196F56
:10589800800E1A6F250E1B6F000E1C6F1D6F72DDB8
:1058A8000F01256B246B236B0B0ECF6EDC0ECE6EB7
:1058B800350ECD6E93809D80F18CD00EF26E30DD6A
:0258C8001200CC
:1058CA000900F5CFE6FF0006FBE10106F9E1120047
:1058DA0042EC28F000C015F101C016F102C017F120
:1058EA0003C018F100C019F101C01AF102C01BF17E
:1058FA0003C01CF19C0E01011D6F000E1E6F80DD9E
:10590A0037EC28F095DC00C098F001C099F002C08D
:10591A009AF003C09BF000C019F101C01AF102C04D
:10592A001BF103C01CF1660E01011D6F000E1E6FF4
:10593A0067DD37EC28F07DEC00F000520FE090ECC8
:10594A0000F000C0D2F00050540A03E1FF0E906E3E
:10595A0005D00001D251460AD8B4906A2050000AF4
:10596A0001E1FCD7F29E206ACEC000F0CFC001F060
:10597A00D0C002F0D1C003F0033202320132003249
:10598A00039E00C0CEF001C0CFF002C0D0F003C029
:10599A00D1F0080E0026000E012202220322090E6F
:1059AA00046E000E056E066E076E19EC0FF012EC0F
:1059BA0007F000C016F001C017F002C018F003C0CB
:1059CA0019F000C019F101C01AF102C01BF103C09D
:1059DA001CF1300E01011D6F000E1E6F11DD2EC06D
:1059EA0019F12FC01AF1120E1B6F5C0E1C6F000EFC
